{
  "contractName": "CampaignFactory",
  "abi": [
    {
      "constant": true,
      "inputs": [
        {
          "internalType": "uint256",
          "name": "",
          "type": "uint256"
        }
      ],
      "name": "deployedCampaigns",
      "outputs": [
        {
          "internalType": "address",
          "name": "",
          "type": "address"
        }
      ],
      "payable": false,
      "stateMutability": "view",
      "type": "function"
    },
    {
      "constant": false,
      "inputs": [
        {
          "internalType": "uint256",
          "name": "minimum",
          "type": "uint256"
        },
        {
          "internalType": "string",
          "name": "title",
          "type": "string"
        },
        {
          "internalType": "string",
          "name": "description",
          "type": "string"
        }
      ],
      "name": "createCampaign",
      "outputs": [],
      "payable": false,
      "stateMutability": "nonpayable",
      "type": "function"
    },
    {
      "constant": true,
      "inputs": [],
      "name": "getDeployedCampaigns",
      "outputs": [
        {
          "internalType": "address[]",
          "name": "",
          "type": "address[]"
        }
      ],
      "payable": false,
      "stateMutability": "view",
      "type": "function"
    }
  ],
  "bytecode": "0x608060405234801561001057600080fd5b50611c8a806100206000396000f3fe608060405234801561001057600080fd5b50600436106100415760003560e01c8063339d50a5146100465780634acb9d4f146100b4578063fad4dee314610113575b600080fd5b6100726004803603602081101561005c57600080fd5b810190808035906020019092919050505061026f565b604051808273ffffffffffffffffffffffffffffffffffffffff1673ffffffffffffffffffffffffffffffffffffffff16815260200191505060405180910390f35b6100bc6102ab565b6040518080602001828103825283818151815260200191508051906020019060200280838360005b838110156100ff5780820151818401526020810190506100e4565b505050509050019250505060405180910390f35b61026d6004803603606081101561012957600080fd5b81019080803590602001909291908035906020019064010000000081111561015057600080fd5b82018360208201111561016257600080fd5b8035906020019184600183028401116401000000008311171561018457600080fd5b91908080601f016020809104026020016040519081016040528093929190818152602001838380828437600081840152601f19601f820116905080830192505050505050509192919290803590602001906401000000008111156101e757600080fd5b8201836020820111156101f957600080fd5b8035906020019184600183028401116401000000008311171561021b57600080fd5b91908080601f016020809104026020016040519081016040528093929190818152602001838380828437600081840152601f19601f820116905080830192505050505050509192919290505050610339565b005b6000818154811061027c57fe5b906000526020600020016000915054906101000a900473ffffffffffffffffffffffffffffffffffffffff1681565b6060600080548060200260200160405190810160405280929190818152602001828054801561032f57602002820191906000526020600020905b8160009054906101000a900473ffffffffffffffffffffffffffffffffffffffff1673ffffffffffffffffffffffffffffffffffffffff16815260200190600101908083116102e5575b5050505050905090565b60008333848460405161034b906104eb565b808581526020018473ffffffffffffffffffffffffffffffffffffffff1673ffffffffffffffffffffffffffffffffffffffff1681526020018060200180602001838103835285818151815260200191508051906020019080838360005b838110156103c45780820151818401526020810190506103a9565b50505050905090810190601f1680156103f15780820380516001836020036101000a031916815260200191505b50838103825284818151815260200191508051906020019080838360005b8381101561042a57808201518184015260208101905061040f565b50505050905090810190601f1680156104575780820380516001836020036101000a031916815260200191505b509650505050505050604051809103906000f08015801561047c573d6000803e3d6000fd5b50905060008190806001815401808255809150509060018203906000526020600020016000909192909190916101000a81548173ffffffffffffffffffffffffffffffffffffffff021916908373ffffffffffffffffffffffffffffffffffffffff1602179055505050505050565b61175d806104f98339019056fe60806040523480156200001157600080fd5b506040516200175d3803806200175d833981810160405260808110156200003757600080fd5b810190808051906020019092919080519060200190929190805160405193929190846401000000008211156200006c57600080fd5b838201915060208201858111156200008357600080fd5b8251866001820283011164010000000082111715620000a157600080fd5b8083526020830192505050908051906020019080838360005b83811015620000d7578082015181840152602081019050620000ba565b50505050905090810190601f168015620001055780820380516001836020036101000a031916815260200191505b50604052602001805160405193929190846401000000008211156200012957600080fd5b838201915060208201858111156200014057600080fd5b82518660018202830111640100000000821117156200015e57600080fd5b8083526020830192505050908051906020019080838360005b838110156200019457808201518184015260208101905062000177565b50505050905090810190601f168015620001c25780820380516001836020036101000a031916815260200191505b5060405250505082600160006101000a81548173ffffffffffffffffffffffffffffffffffffffff021916908373ffffffffffffffffffffffffffffffffffffffff160217905550836002819055508160039080519060200190620002299291906200024d565b508060049080519060200190620002429291906200024d565b5050505050620002fc565b828054600181600116156101000203166002900490600052602060002090601f016020900481019282601f106200029057805160ff1916838001178555620002c1565b82800160010185558215620002c1579182015b82811115620002c0578251825591602001919060010190620002a3565b5b509050620002d09190620002d4565b5090565b620002f991905b80821115620002f5576000816000905550600101620002db565b5090565b90565b611451806200030c6000396000f3fe6080604052600436106100c25760003560e01c80637284e4161161007f5780638a9cfd55116100595780638a9cfd5514610583578063937e09b114610675578063d7bb99ba146106a0578063d7d1bbdb146106aa576100c2565b80637284e416146103c857806381d12c581461045857806382fde09314610558576100c2565b806303441006146100c75780630a144391146101025780633410452a1461016b5780634051ddac14610196578063481c6a75146102e15780634a79d50c14610338575b600080fd5b3480156100d357600080fd5b50610100600480360360208110156100ea57600080fd5b81019080803590602001909291905050506106e5565b005b34801561010e57600080fd5b506101516004803603602081101561012557600080fd5b81019080803573ffffffffffffffffffffffffffffffffffffffff169060200190929190505050610943565b604051808215151515815260200191505060405180910390f35b34801561017757600080fd5b50610180610963565b6040518082815260200191505060405180910390f35b3480156101a257600080fd5b506101ab61096f565b604051808881526020018781526020018681526020018581526020018473ffffffffffffffffffffffffffffffffffffffff1673ffffffffffffffffffffffffffffffffffffffff1681526020018060200180602001838103835285818151815260200191508051906020019080838360005b8381101561023957808201518184015260208101905061021e565b50505050905090810190601f1680156102665780820380516001836020036101000a031916815260200191505b50838103825284818151815260200191508051906020019080838360005b8381101561029f578082015181840152602081019050610284565b50505050905090810190601f1680156102cc5780820380516001836020036101000a031916815260200191505b50995050505050505050505060405180910390f35b3480156102ed57600080fd5b506102f6610b14565b604051808273ffffffffffffffffffffffffffffffffffffffff1673ffffffffffffffffffffffffffffffffffffffff16815260200191505060405180910390f35b34801561034457600080fd5b5061034d610b3a565b6040518080602001828103825283818151815260200191508051906020019080838360005b8381101561038d578082015181840152602081019050610372565b50505050905090810190601f1680156103ba5780820380516001836020036101000a031916815260200191505b509250505060405180910390f35b3480156103d457600080fd5b506103dd610bd8565b6040518080602001828103825283818151815260200191508051906020019080838360005b8381101561041d578082015181840152602081019050610402565b50505050905090810190601f16801561044a5780820380516001836020036101000a031916815260200191505b509250505060405180910390f35b34801561046457600080fd5b506104916004803603602081101561047b57600080fd5b8101908080359060200190929190505050610c76565b60405180806020018681526020018573ffffffffffffffffffffffffffffffffffffffff1673ffffffffffffffffffffffffffffffffffffffff16815260200184151515158152602001838152602001828103825287818151815260200191508051906020019080838360005b838110156105195780820151818401526020810190506104fe565b50505050905090810190601f1680156105465780820380516001836020036101000a031916815260200191505b50965050505050505060405180910390f35b34801561056457600080fd5b5061056d610d7e565b6040518082815260200191505060405180910390f35b34801561058f57600080fd5b50610673600480360360608110156105a657600080fd5b81019080803590602001906401000000008111156105c357600080fd5b8201836020820111156105d557600080fd5b803590602001918460018302840111640100000000831117156105f757600080fd5b91908080601f016020809104026020016040519081016040528093929190818152602001838380828437600081840152601f19601f82011690508083019250505050505050919291929080359060200190929190803573ffffffffffffffffffffffffffffffffffffffff169060200190929190505050610d84565b005b34801561068157600080fd5b5061068a610f44565b6040518082815260200191505060405180910390f35b6106a8610f4a565b005b3480156106b657600080fd5b506106e3600480360360208110156106cd57600080fd5b81019080803590602001909291905050506110d0565b005b600160009054906101000a900473ffffffffffffffffffffffffffffffffffffffff1673ffffffffffffffffffffffffffffffffffffffff163373ffffffffffffffffffffffffffffffffffffffff161461078b576040517f08c379a00000000000000000000000000000000000000000000000000000000081526004018080602001828103825260268152602001806113f76026913960400191505060405180910390fd5b600080828154811061079957fe5b906000526020600020906005020190508060020160149054906101000a900460ff161561082e576040517f08c379a00000000000000000000000000000000000000000000000000000000081526004018080602001828103825260198152602001807f5265717565737420616c747265647920636f6d706c657465640000000000000081525060200191505060405180910390fd5b60026006548161083a57fe5b048160030154116108b3576040517f08c379a00000000000000000000000000000000000000000000000000000000081526004018080602001828103825260148152602001807f4e6f7420656e6f75676820617070726f7665727300000000000000000000000081525060200191505060405180910390fd5b8060020160009054906101000a900473ffffffffffffffffffffffffffffffffffffffff1673ffffffffffffffffffffffffffffffffffffffff166108fc82600101549081150290604051600060405180830381858888f19350505050158015610921573d6000803e3d6000fd5b5060018160020160146101000a81548160ff0219169083151502179055505050565b60056020528060005260406000206000915054906101000a900460ff1681565b60008080549050905090565b60008060008060006060806002543073ffffffffffffffffffffffffffffffffffffffff1631600080549050600654600160009054906101000a900473ffffffffffffffffffffffffffffffffffffffff1660036004818054600181600116156101000203166002900480601f016020809104026020016040519081016040528092919081815260200182805460018160011615610100020316600290048015610a5a5780601f10610a2f57610100808354040283529160200191610a5a565b820191906000526020600020905b815481529060010190602001808311610a3d57829003601f168201915b50505050509150808054600181600116156101000203166002900480601f016020809104026020016040519081016040528092919081815260200182805460018160011615610100020316600290048015610af65780601f10610acb57610100808354040283529160200191610af6565b820191906000526020600020905b815481529060010190602001808311610ad957829003601f168201915b50505050509050965096509650965096509650965090919293949596565b600160009054906101000a900473ffffffffffffffffffffffffffffffffffffffff1681565b60038054600181600116156101000203166002900480601f016020809104026020016040519081016040528092919081815260200182805460018160011615610100020316600290048015610bd05780601f10610ba557610100808354040283529160200191610bd0565b820191906000526020600020905b815481529060010190602001808311610bb357829003601f168201915b505050505081565b60048054600181600116156101000203166002900480601f016020809104026020016040519081016040528092919081815260200182805460018160011615610100020316600290048015610c6e5780601f10610c4357610100808354040283529160200191610c6e565b820191906000526020600020905b815481529060010190602001808311610c5157829003601f168201915b505050505081565b60008181548110610c8357fe5b9060005260206000209060050201600091509050806000018054600181600116156101000203166002900480601f016020809104026020016040519081016040528092919081815260200182805460018160011615610100020316600290048015610d2f5780601f10610d0457610100808354040283529160200191610d2f565b820191906000526020600020905b815481529060010190602001808311610d1257829003601f168201915b5050505050908060010154908060020160009054906101000a900473ffffffffffffffffffffffffffffffffffffffff16908060020160149054906101000a900460ff16908060030154905085565b60065481565b600160009054906101000a900473ffffffffffffffffffffffffffffffffffffffff1673ffffffffffffffffffffffffffffffffffffffff163373ffffffffffffffffffffffffffffffffffffffff1614610e2a576040517f08c379a00000000000000000000000000000000000000000000000000000000081526004018080602001828103825260268152602001806113f76026913960400191505060405180910390fd5b610e326112e1565b6040518060a001604052808581526020018481526020018373ffffffffffffffffffffffffffffffffffffffff16815260200160001515815260200160008152509050600081908060018154018082558091505090600182039060005260206000209060050201600090919290919091506000820151816000019080519060200190610ebf929190611328565b506020820151816001015560408201518160020160006101000a81548173ffffffffffffffffffffffffffffffffffffffff021916908373ffffffffffffffffffffffffffffffffffffffff16021790555060608201518160020160146101000a81548160ff0219169083151502179055506080820151816003015550505050505050565b60025481565b6002543411610fa4576040517f08c379a00000000000000000000000000000000000000000000000000000000081526004018080602001828103825260298152602001806113ce6029913960400191505060405180910390fd5b600560003373ffffffffffffffffffffffffffffffffffffffff1673ffffffffffffffffffffffffffffffffffffffff16815260200190815260200160002060009054906101000a900460ff1615611064576040517f08c379a00000000000000000000000000000000000000000000000000000000081526004018080602001828103825260208152602001807f596f752063616e20636f6e74726962757465206f6e6c79206f6e652074696d6581525060200191505060405180910390fd5b6001600560003373ffffffffffffffffffffffffffffffffffffffff1673ffffffffffffffffffffffffffffffffffffffff16815260200190815260200160002060006101000a81548160ff021916908315150217905550600660008154809291906001019190505550565b600560003373ffffffffffffffffffffffffffffffffffffffff1673ffffffffffffffffffffffffffffffffffffffff16815260200190815260200160002060009054906101000a900460ff1661118f576040517f08c379a00000000000000000000000000000000000000000000000000000000081526004018080602001828103825260168152602001807f596f75206861766520746f20636f6e747269627574650000000000000000000081525060200191505060405180910390fd5b600080828154811061119d57fe5b906000526020600020906005020190508060040160003373ffffffffffffffffffffffffffffffffffffffff1673ffffffffffffffffffffffffffffffffffffffff16815260200190815260200160002060009054906101000a900460ff161561126f576040517f08c379a000000000000000000000000000000000000000000000000000000000815260040180806020018281038252601d8152602001807f596f752063616e20617070726f7665206f6e6c79206f6e652074696d6500000081525060200191505060405180910390fd5b60018160040160003373ffffffffffffffffffffffffffffffffffffffff1673ffffffffffffffffffffffffffffffffffffffff16815260200190815260200160002060006101000a81548160ff02191690831515021790555080600301600081548092919060010191905055505050565b6040518060a001604052806060815260200160008152602001600073ffffffffffffffffffffffffffffffffffffffff168152602001600015158152602001600081525090565b828054600181600116156101000203166002900490600052602060002090601f016020900481019282601f1061136957805160ff1916838001178555611397565b82800160010185558215611397579182015b8281111561139657825182559160200191906001019061137b565b5b5090506113a491906113a8565b5090565b6113ca91905b808211156113c65760008160009055506001016113ae565b5090565b9056fe546865206d696e696d756d20636f6e747269627574696f6e206973206e6f7420736174697366696564596f75206172656e277420746865206d616e676572206f6620746869732043616d706169676ea265627a7a723158208645353f8a7974106a0d39526e74705f86bdf1bf0b7d22147509400d3cf0f0d164736f6c634300050c0032a265627a7a7231582068465f4cbe25b22c0ef1d1b2d9d1e0e652205c43b2357e0ed27cc1e1b6654b2f64736f6c634300050c0032",
  "source": "pragma solidity ^0.5.0;\n\ncontract CampaignFactory {\n    address[] public deployedCampaigns;\n\n    function createCampaign(uint minimum, string memory title, string memory description) public {\n        address newCampaign = address(new Campaign(minimum, msg.sender, title, description));\n        deployedCampaigns.push(newCampaign);\n    }\n\n    function getDeployedCampaigns() public view returns(address[] memory){\n        return deployedCampaigns;\n    }\n}\n\ncontract Campaign {\n\n    struct Request {\n        string description;\n        uint value;\n        address payable recipient;\n        bool complete;\n        uint approvalCount;\n        mapping(address=>bool) approvals;\n    }\n\n    Request[] public requests;\n    address public manager;\n    uint public minimumContribution;\n    string public title;\n    string public description;\n    mapping(address => bool) public approvers;\n    uint public approversCount;\n\n    modifier restricted(){\n        require(msg.sender == manager, \"You aren't the manger of this Campaign\");\n        _;\n    }\n\n    constructor(uint minimum, address creator, string memory t, string memory d) public {\n        manager = creator;\n        minimumContribution = minimum;\n        title = t;\n        description = d;\n    }\n\n    function contribute() public payable {\n        require(msg.value > minimumContribution, \"The minimum contribution is not satisfied\");\n        require(!approvers[msg.sender], \"You can contribute only one time\");\n\n        approvers[msg.sender] = true;\n        approversCount++;\n    }\n\n    function createRequest(string memory desc, uint value, address payable recipient) public restricted{\n        Request memory newRequest = Request({\n            description:desc,\n            value:value,\n            recipient:recipient,\n            complete:false,\n            approvalCount:0\n        });\n\n        requests.push(newRequest);\n    }\n\n    function approveRequest(uint id) public {\n        require(approvers[msg.sender], \"You have to contribute\");\n\n        Request storage req = requests[id];\n\n        require(! req.approvals[msg.sender], \"You can approve only one time\");\n\n        req.approvals[msg.sender] = true;\n        req.approvalCount++;\n    }\n\n    function finalizeRequest(uint id) public restricted{\n\n        Request storage req = requests[id];\n\n        require(! req.complete, \"Request altredy completed\");\n        require(req.approvalCount > (approversCount / 2), \"Not enough approvers\");\n\n        req.recipient.transfer(req.value);\n        req.complete = true;\n\n    }\n\n    function getSummary() public view returns(uint, uint, uint, uint, address, string memory, string memory){\n        return(\n            minimumContribution,\n            address(this).balance,\n            requests.length,\n            approversCount,\n            manager,\n            title,\n            description\n        );\n    }\n\n    function getRequestsCount() public view returns(uint){\n        return requests.length;\n    }\n}",
  "sourcePath": "/home/christian/Documenti/Udemy/Ethereum and Solidity The Complete Developer's Guide/Esercizi/kickstarter/ethereum/contracts/Campaign.sol",
  "compiler": {
    "name": "solc",
    "version": "0.5.12+commit.7709ece9.Emscripten.clang"
  },
  "schemaVersion": "3.0.19",
  "updatedAt": "2020-02-17T14:20:58.703Z",
  "networkType": "ethereum",
  "devdoc": {
    "methods": {}
  },
  "userdoc": {
    "methods": {}
  }
}